021001MEB0000141060021230426231101000118000180MAGTAPE                                                                                                                               
0443172304262305012305012305010075750270TWO DAY
5045010901006912345678900000105021700180627021100000020520230501350000TESTSYSTEM 0 FOR BWEB         TEST COATINGS (PTY) LTD       00000000000000000000                21            
5045010901006912345678900000263200504048186101100000020520230501350000TESTSYSTEM 1 FOR BWEB         AUTO TEST                     00000000000000000000                21            
5245010901006912345678900769845010901006920447100000041040230501100000TESTSYSTEMCONTRA              TESTSYSTEM                                                                      
92TEST000001000002230501230501000002000001000001000000041040000000041040004128813122                                                                                                
941001MEB0000141060021230501081203000118000180MAGETAPE   000013000128000002                                                                                                         