0120230714EFT UNPAIDS   4209ACBJEGV6001D0001DATAOUT20230714LIVE01804209
214509050105081108901300000046320050071202617010000001034523071481012 BROKER3UAT100029R8  UNPAIDLKUHUNPAIDLKUH HOLLARD             00000000000000000000528720  230714 89      230714
6063200507120261700013000000845090501050811089100000010345230714110000JHB100044230714000001         CAPITEC PAYMENT SERVICES      00000000000000000000                21      230714
614509050105081108939520000546320050071202617010000001611723071532002 BROKER1UAT100029R4     UNPAID3Margo  O Cullen                0000000000000000000876786   230714 89      230714
2063200500712026170395200010345090501050811089100000016117230714110000JHB110432230714000001         CAPITEC PAYMENT SERVICES      00000000000000000000                21      230714
614509050160001792407970000646320050071202617010000001060023071532012 BROKER1UAT100029QX   UNPD 1094Margo  O Cullen                0000000000000000000876786   230714 89      230714
2063200500712026170079700015345090501600017924100000010600230714110000JHB120432230714000001         CAPITEC PAYMENT SERVICES      00000000000000000000                21      230714